:03000000020003F8
:0C000300787FE4F6D8FD75810B02004AFE
:1000B400C0F9A4B0999282F880908040201008047E
:1000C4000201C0F9A4B0999282F880908CBFC6A1B5
:0300D40086FFBFE5
:06010800040800000000E5
:1000F800758901758CFC758A18D28C12008F80FB6B
:10008F001200DB7F011200E11200D77F021200E1A4
:10009F001200D77F041200E11200D77F081200E18F
:0500AF00C291D2912274
:0A00D700C291D2919000C6E493FF9D
:1000E1007E08EF30E704D2908002C290EF25E0FF56
:0700F100C292D292DEEC2264
:10000F000200F8E493A3F8E493A34003F68001F20F
:10001F0008DFF48029E493A3F85407240CC8C333F2
:10002F00C4540F4420C8834004F456800146F6DFC1
:10003F00E4800B0102040810204080900108E47E48
:10004F00019360BCA3FF543F30E509541FFEE493B6
:10005F00A360010ECF54C025E060A840B8E493A37D
:10006F00FAE493A3F8E493A3C8C582C8CAC583CAA8
:10007F00F0A3C8C582C8CAC583CADFE9DEE780BE60
:01010E0000F0
:00000001FF
