:030000000200F605
:0C00F600787FE4F6D8FD75810D02000350
:10000300E4F50AF50B750C08F50DD294D291C29361
:10001300C292D290D295F508F5097F0A7E001200AC
:10002300BE0509E50970020508C394D0E5089407E5
:1000330040E8C294C291D293D292D290D295E4F581
:1000430008F5097F147E001200BE0509E509700258
:100053000508C394D0E508940740E8D294D291C22E
:1000630093C292E50B650D7004E50A650C6018D226
:1000730095D290050BE50BAE0A7002050A14FF1228
:1000830000EB1200DC80DCE4F50AF50BC294C291AC
:10009300D293D292E50B650D7004E50A650C7003EB
:1000A300020003D295D290050BE50BAE0A70020550
:0B00B3000A14FF1200EB1200DC80D9E1
:1000BE00D3EF9400EE940040147D6E7C00ED1D7025
:0D00CE00011CED4C70F7EF1F70E61E80E383
:0100DB002202
:0F00DC00C295C290C3E50D950BFFE50C950AFE8A
:0B00EB00EF1FAC0670011E4C70F622E7
:00000001FF
