:030000000200FA01
:0C00FA00787FE4F6D8FD75810D0200034C
:10000300E4F50AF50B750C08F50DD284D281C28391
:10001300C282A2809285F508F5097F0A7E0012004C
:10002300C2B285B2800509E50970020508C394D000
:10003300E508940740E4C284C281D283D282E4F506
:1000430008F5097F147E001200C2B285B28005094B
:10005300E50970020508C394D0E508940740E4D28B
:1000630084D281C283C282E50B650D7004E50A6503
:100073000C6018D285D280050BE50BAE0A70020521
:100083000A14FF1200EF1200E080DCE4F50AF50B1E
:10009300C284C281D283D282E50B650D7004E50A66
:1000A300650C7003020003D285D280050BE50BAE0D
:0F00B3000A7002050A14FF1200EF1200E080D954
:1000C200D3EF9400EE940040147D6E7C00ED1D7021
:0D00D200011CED4C70F7EF1F70E61E80E37F
:0100DF0022FE
:0F00E000C285C280C3E50D950BFFE50C950AFEA6
:0B00EF00EF1FAC0670011E4C70F622E3
:00000001FF
